:020000040800F2
:1000000070070020ED170008DD050008DF05000877
:10001000E3050008E7050008EB0500080000000004
:10002000000000000000000000000000EF050008D4
:10003000F105000800000000F3050008F5050008C0
:100040000718000807180008071800080718000814
:100050000718000807180008071800080718000804
:1000600007180008071800080718000807180008F4
:1000700007180008071800080718000807180008E4
:1000800007180008071800080718000807180008D4
:1000900007180008071800080718000807180008C4
:1000A00007180008071800080718000807180008B4
:1000B000071800089B100008071800080718000818
:1000C0000718000807180008071800080718000894
:1000D00007180008BB1700080718000807180008D1
:1000E0000718000807180008071800080718000874
:1000F0000718000807180008071800080718000864
:100100000718000807180008071800080718000853
:100110000718000807180008071800080718000843
:100120000718000807180008071800080718000833
:1001300000F002F800F03AF80AA090E8000C8244BF
:100140008344AAF10107DA4501D100F02FF8AFF29C
:10015000090EBAE80F0013F0010F18BFFB1A43F0A5
:10016000010318471447000034470000103A24BF29
:1001700078C878C1FAD8520724BF30C830C144BF0C
:1001800004680C607047000000230024002500264E
:10019000103A28BF78C1FBD8520728BF30C148BFEA
:1001A0000B6070471FB51FBD10B510BD03F06BFA93
:1001B0001146FFF7F7FF00F0C8F903F089FA03B41E
:1001C000FFF7F2FF03BC01F053FA000010B5EB4B50
:1001D00000221146104601F030F9E84B01221021AF
:1001E000002001F02AF9E54B02222021002001F035
:1001F00024F9E24B03223021002001F01EF9DF4BED
:1002000016224021002001F018F9DC4B04220021C5
:10021000022001F012F9D94B05221021022001F031
:100220000CF9D64B06222021022001F006F9D34B0F
:1002300007223021022001F000F9D04B1622402184
:10024000022001F0FAF8CD4B12225021022001F0D9
:10025000F4F8CA4B13226021022001F0EEF8C74BDC
:1002600004220021104601F0E8F8C44B05221021B9
:10027000042001F0E2F8C14B08222021042001F003
:10028000DCF8BE4B09223021042001F0D6F8BB4B2C
:1002900016224021042001F0D0F8B9A301225021F8
:1002A000042001F0F5F810BD10B50024002C0FDD7E
:1002B000B4F5C87F0CDCB14B10225021002001F0B6
:1002C000BCF8AE4B11226021002001F0B6F826E008
:1002D000B4F5C87F10DD40F6AC5084420CDCA74B6F
:1002E0000E225021002001F0A8F8A44B0F2260211B
:1002F000002001F0A2F812E040F6AC5084420EDD7E
:10030000B4F5805F0BDA9D4B0C225021002001F0E8
:1003100094F89A4B0D226021002001F08EF810BD58
:1003200010B50024B4F5927F0BDC00220121954822
:1003300000F033FE94A301225021042001F0A8F81C
:1003400002E1B4F5927F0EDDB4F59E7F0BDA002258
:1003500001218C4800F021FE8BA3012250210420B2
:1003600001F096F8F0E0B4F59E7F0EDBB4F5AB7FBC
:100370000BDA00220121834800F00FFE82A3012244
:100380005021042001F084F8DEE0B4F5AB7F0EDBF1
:10039000B4F5BA7F0BDC7D4A01217A4800F0FDFDFF
:1003A0007BA301225021042001F072F8CCE0B4F5C7
:1003B000BA7F0EDDB4F5CD7F0BDA764A01217148A4
:1003C00000F0EBFD74A301225021042001F060F83D
:1003D000BAE0B4F5CD7F0EDBB4F5E47F0BDA6F4AFB
:1003E0000121684800F0D9FD6DA3012250210420AD
:1003F00001F04EF8A8E0B4F5E47F0EDBB4F5007F21
:100400000BDA684A01215F4800F0C7FD66A30122AC
:100410005021042001F03CF896E0B4F5007F0FDB9A
:1004200040F2492084420BDC604A0121554800F02B
:10043000B4FD5FA301225021042001F029F883E0DC
:1004400040F2492084420FDD40F2AA2084420BDCB6
:10045000564A01214B4800F0A0FD55A3012250212E
:10046000042001F015F86FE040F2AA2084420EDD6E
:10047000B4F54D7F0BDA4F4A0121424800F08DFD63
:100480004DA301225021042001F002F85CE0B4F5F4
:100490004D7F0EDBB4F5806F0BDA484A01213948F5
:1004A00000F07BFD46A301225021042000F0F0FF64
:1004B0004AE0B4F5806F0FDB40F2555084420BDC0C
:1004C0003E4A01212F4800F068FD3DA30122502142
:1004D000042000F0DDFF37E040F2555084420EDD8D
:1004E000B4F5006F0BDA374A0121264800F055FDBC
:1004F00035A301225021042000F0CAFF24E0B4F506
:10050000006F0FDB40F6AC5084420BDC2F4A012118
:100510001C4800F042FD2EA301225021042000F0CF
:10052000B7FF11E040F6AC5084420DDDB4F5805FBA
:100530000ADA284A0121134800F02FFD26A30122E0
:100540005021042000F0A4FF10BD01F027F84FF463
:10055000E13001F09CF800F03FF900F05AF900F0AA
:10056000C8FE00F0C5FDFFF731FE05E000F040F8E1
:1005700000F0BDF9FFF798FEF8E700007E3D0008A7
:100580004F464600002C0140303030000000C8418A
:10059000303235000000F0413033300000000C42B2
:1005A0003033350000002042303430000000484233
:1005B0003035300000005C423035350000007042BC
:1005C0003036300000008C42303730000000A0424E
:1005D000303830000000C84231303000704700BF72
:1005E000FEE700BFFEE700BFFEE700BFFEE7704783
:1005F00070477047704700000CB5002001900090D4
:100600006C48006840F480306A49086000BF69485F
:10061000006800F4003000900198401C01900098A0
:1006200018B90198B0F5A06FF1D16248006800F4E4
:10063000003010B10120009001E0002000900098EF
:10064000012843D15C48006840F010005A49086016
:100650000846006820F0030008600846006840F083
:1006600002000860534840685249486008464068A4
:1006700048600846406840F480604860084640682A
:1006800020F47C1048600846406840F4E810486058
:100690000846006840F08070086000BF4548006868
:1006A00000F000700028F9D04248406820F00300B4
:1006B000404948600846406840F00200486000BF7A
:1006C0003C48406800F00C000828F9D10CBD10B57A
:1006D000FFF792FF10BD10B53648006840F00100EA
:1006E0003449086008464068344908403149486048
:1006F00008460068324908402E49086008460068EC
:1007000020F4802008600846406820F4FE0048601D
:100710004FF41F008860FFF7DAFF4FF000602949AF
:10072000086010BD10B5002100200022214B5B683D
:1007300003F00C0121B1042906D0082928D107E0D3
:10074000214B224C236027E01F4B204C236023E0E9
:10075000184B5B6803F47010164B5B6803F480322F
:10076000022303EB904022B9194B4343174C2360FB
:100770000DE0104B5B6803F4003323B1144B43438B
:10078000124C236003E0104B4343104C236003E002
:100790000D4B0E4C236000BF00BF064B5B68C3F3DC
:1007A00003130C4CE15C094B1B68CB40074C2360E6
:1007B00010BD000000100240002002400000FFF8C1
:1007C000FFFFF6FE08ED00E000127A0000000020B6
:1007D00000093D000400002008B501210C2001F0B3
:1007E000D7FD0121F94801F0E8FB4820ADF80000F1
:1007F0008DF803006946F64801F00EFB0B20ADF8BA
:10080000000048208DF803006946F24801F004FB1F
:1008100008BD08B50121082001F0BAFD4FF40070B1
:10082000ADF8000048208DF803006946E94801F062
:10083000F3FA0921E74801F09CFB08BD10B5044616
:1008400014B10120E4490870E3480078002833D04F
:10085000E248006870B1E248006858B1E048001D05
:10086000006838B1DD480C30006818B1DC480C3045
:10087000006808BB1E2000F0CEFE0020D64908709C
:10088000D648006808B9012010BDD548006808B9ED
:100890000220F9E7D248001D006808B90320F3E7F9
:1008A000CE480C30006808B90420EDE7CC480C3085
:1008B0000068D0B90520E7E7C8480068012814D1CE
:1008C000C7480068012810D1C548001D00680128EC
:1008D0000BD1C2480C300068012806D1C0480C304A
:1008E0000068012801D1BC4908700020CCE770B530
:1008F00000240020FFF7A2FF0446BA480078044312
:100900000020B8490870B6482430006838B9B648A5
:100910000078012803D10121B44801F088F8B048DB
:1009200024300068012808D10021B04801F07FF888
:1009300000220121AE4800F030FBAE4800782128AB
:1009400005D1ADA301225021042000F0A1FDA9484A
:100950000078422805D1A9A301225021042000F0EB
:1009600097FDA448007828B9A5A3012250210420AE
:1009700000F08EFD062C3ED2DFE804F03D033E6D14
:10098000DAFD9948007878B90120974908709D4BA5
:1009900014225021022000F050FD9A4B15226021B4
:1009A000022000F04AFD26E08F480078012822D17D
:1009B00000218E4801F03BF8002201218C4800F014
:1009C000ECFA00220121880700F0E7FA00208649AE
:1009D00008708C4B12225021022000F02EFD894B12
:1009E00013226021022000F028FD87A3012250215C
:1009F000042000F04DFD5FE18448007898B9844AF6
:100A000001217B4800F0C9FA00220121880700F08B
:100A1000C4FA79A301225021042000F039FD0120FD
:100A20007A49087016E079480078012812D100222E
:100A300001216F4800F0B1FA00220121880700F07F
:100A4000ACFA71A301225021042000F021FD002006
:100A50006E49087030E16F480078F0B96548007859
:100A60002130644908700846007803F043F80546D1
:100A70002A4601215E4800F090FA002201218807F1
:100A800000F08BFA5B480078632802DB00205949AC
:100A9000087001205F49087049E05E48007801282D
:100AA0001ED1544800782130524908700846007819
:100AB00003F020F805462A460121880700F06DFA68
:100AC000002201214A4800F068FA4A480078632869
:100AD00002DB00204749087002204E49087026E0DA
:100AE0004C480078022822D1424800782130414900
:100AF00008700846007802F0FDFF05462A460121ED
:100B0000880700F04AFA3B48007802F0F3FF0546F8
:100B10002A460121364800F040FA3648007863281A
:100B200002DB00203349087000203A490870C3E016
:100B300039480078002877D138480078401C374978
:100B4000087008460078052801DD00200870334849
:100B50000078062877D2DFE800F07603121F2C69B0
:100B60000A202F490860012211462E4802F0BFF8E2
:100B700001212C4800E06AE002F09EF864E01420B5
:100B80002749086001221146264802F0B0F80121E9
:100B9000244802F091F857E01E2021490860012204
:100BA0001146204802F0A3F801211E4802F084F803
:100BB0004AE028201A49086001221146194802F02B
:100BC00096F80121174802F077F83DE00002300066
:100BD00000080140000C01401C0000200C012142D3
:100BE00000812142480000201B0000200024014019
:100BF000002C0140140000204F4E31004F4E3200B7
:100C00004F4E33007E3D00084F464600170000203F
:100C100000000442180000201900002015000020E8
:100C2000200000200004004010E00CE032202349A6
:100C3000086001221146224802F059F8012120489B
:100C400002F03AF800E000BF00BF35E000BF1D48E9
:100C5000007868B901201B490870002201211A4858
:100C600000F09BF9194A0121880700F096F922E06B
:100C70001448007801280DD1022012490870134A47
:100C80000121114800F089F9104A0121880700F07C
:100C900084F910E00B48007802280CD100200949A3
:100CA00008700A4A0121084800F077F90022012162
:100CB000880700F072F900BF00BF70BD200000205F
:100CC000000400401A000020002C014000000442F3
:100CD0002DE9F04F8BB004460D4691461E46DDF8D7
:100CE00050A0504602F0D4FDBA4ABB4BCDE90001FA
:100CF00002F098FD0CD8504602F0CAFDB74AB84B36
:100D0000CDE9000102F0FEFC02D24EF2FF074CE0FA
:100D1000504602F0BDFDB14AB14BCDE9000102F0F1
:100D200081FD0CD8504602F0B3FDAE4AAE4BCDE982
:100D3000000102F0E7FC02D247F27F0735E050469F
:100D400002F0A6FDA74AA84BCDE9000102F06AFD1A
:100D500007D8A649504602F0E1FE02D241F61F47ED
:100D600023E0A249504602F0D9FF07D8A0495046D7
:100D700002F0D4FE02D240F2CF2716E09C49504642
:100D800002F0CCFF06D89B49504602F0C7FE01D2C4
:100D900047270AE09849504602F0C0FF05D8974916
:100DA000504602F0BBFE00D20027781C02F08AFEFB
:100DB0005146009002F0E6FE83465946904802F004
:100DC0009FFD019002F05EFE1FFA80F88D48A0F8AA
:100DD00000800121084601F0DBFA8B48844204D1EF
:100DE0000121C01401F0D4FA26E0B4F1804F04D1FF
:100DF0000121084601F0D9FA1EE08448844204D15A
:100E00000121022001F0D1FA16E08148844204D188
:100E10000121042001F0C9FA0EE07E48844204D189
:100E20000121082001F0C1FA06E07B48844203D189
:100E30000121401401F0ACFA7848854204D1012127
:100E4000042001F0A5FA2EE07548854204D1012165
:100E5000082001F09DFA26E07248854204D1012164
:100E6000102001F095FA1EE06F48854204D101215F
:100E7000202001F08DFA16E06C48854204D1012152
:100E8000402001F085FA0EE06948854204D1012135
:100E9000802001F07DFA06E06648854203D10121F9
:100EA000801501F075FA0121634801F086F80121EF
:100EB000624801F082F803208DF82600ADF82490F6
:100EC00018208DF8270009A9284600F0A5FFA8F1F1
:100ED000010080B2ADF81C00ADF818700020ADF82C
:100EE0001E00ADF81A0006A9204601F089FB60201B
:100EF000ADF808000120ADF80A000020ADF80E00A2
:100F0000ADF81000012E04D102A9204601F0B5FB76
:100F100013E0022E04D102A9204601F0F0FB0CE000
:100F2000032E04D102A9204601F036FC05E0042E70
:100F300003D102A9204601F07AFC012E04D1082138
:100F4000204601F0E9FF13E0022E04D108212046DB
:100F500001F0EBFF0CE0032E04D10821204601F044
:100F6000F1FF05E0042E03D10821204601F0F3FF34
:100F70002548844202D02848844207D101212046D6
:100F800001F0A6FE0121204601F096FF0121204636
:100F900001F092FE0BB0BDE8F08F2DE9F047054659
:100FA0008A4614461748008802F0A4FD80460F497F
:100FB000204602F0A5FC8146414602F0E3FD0746CB
:100FC00002F060FD86B23146284602F013F9BDE812
:100FD000F0870000DBF97E6ABC74933F2B8716D93B
:100FE000CEF7A33F9A9999999999A93F000020417A
:100FF0000000C84200007A440080894400FF7F4717
:1010000000A08C471E000020002C0140000400407E
:1010100000080040000C004000340140000801407E
:10102000000C014000100140001401400018014074
:10103000001C01400020014000023000400016006A
:101040007FB505460C460121022001F0AEF9ADF84E
:101050000850ADF804400020ADF80A00ADF80600D5
:1010600001A9204801F0CCFA002201211D4801F01D
:101070003EFE1D208DF8000001208DF801000320A8
:101080008DF8020001208DF80300684600F0D3FBC4
:101090000021144801F010FE7FBD10B50121114858
:1010A00002F0D3F8E0B110480068401C0E49086017
:1010B000084600680D49096888420DD300220121C5
:1010C000084801F014FE0021064801F0F5FD00205B
:1010D00005490860054908600121024802F0C6F888
:1010E00010BD00000004004024000020200000206B
:1010F00000B587B001214FF4017001F049F94FF4B8
:10110000004001F0A9F80220ADF8040000208DF89D
:10111000070001A9244800F07FFE244800F0F4FBFA
:10112000002002908DF80C008DF80D004FF4602027
:1011300004900020059001208DF8180002A91B489A
:1011400000F009FC0121194800F031FC174800F0BB
:1011500050FC00BF154800F051FC0028FAD113489C
:1011600000F056FC00BF114800F057FC0028FAD1EF
:1011700007B000BD10B504460723012221460B48E5
:1011800000F081FC0121094800F051FC00BF022160
:10119000064800F0BDFD0028F9D0044800F0DAFC54
:1011A00010BD0146704700000008014000240140C6
:1011B00010B50020F3490860052000F008FA00206F
:1011C000F149C1F89401012000F001FA0120ED4934
:1011D0000860052000F0FBF90120EB49C1F89401FB
:1011E00010BD10B50120E7490860052000F0EFF9B7
:1011F0000120E549C1F8940100F0E9F9E1480068EF
:10120000C4B20020E049C1F89401204610BD70B579
:10121000044600251AE004F0800018B10120D949E5
:10122000086002E00020D74908600120D549091D67
:10123000086000F0CCF90020D349C1F894010120E6
:1012400000F0C5F96006040E681CC5B2082DE2DB8B
:10125000FFF7C7FF70BD10B50120CA49086005201F
:1012600000F0B5F90120C849C1F8940100F0AFF9C8
:101270000020C4490860052000F0A9F90020C249F7
:10128000C1F8940110BD70B505460C46FFF7E3FFA9
:101290007820FFF7BCFF1CB14020FFF7B8FF02E049
:1012A0000020FFF7B4FF2846FFF7B1FFFFF780FFEC
:1012B00070BD70B5002419E004F1B001C8B200217E
:1012C000FFF7E1FF00210846FFF7DDFF00211020B6
:1012D000FFF7D9FF002505E001210020FFF7D3FF2C
:1012E000681CC5B2802DF7DB601CC4B2082CE3DBA0
:1012F00070BD08B50121084601F04AF801213C20E3
:1013000001F046F80121A14800F057FE3020ADF869
:10131000000010208DF8030003208DF802006946BC
:101320009B4800F079FD0021AE20FFF7ACFF0021C3
:101330000846FFF7A8FF00211020FFF7A4FF0021B7
:101340004020FFF7A0FF00218120FFF79CFF002134
:10135000CF20FFF798FF0021A120FFF794FF002185
:10136000C820FFF790FF0021A620FFF78CFF002187
:10137000A820FFF788FF00213F20FFF784FF00210E
:10138000D320FFF780FF00210846FFF77CFF0021F4
:10139000D520FFF778FF00218020FFF774FF0021A0
:1013A000D920FFF770FF0021F120FFF76CFF00212B
:1013B000DA20FFF768FF00211220FFF764FF002109
:1013C000DB20FFF760FF00214020FFF75CFF0021DA
:1013D0002020FFF758FF00210220FFF754FF0021D3
:1013E0008D20FFF750FF00211420FFF74CFF002154
:1013F000A420FFF748FF0021A620FFF744FF0021AB
:10140000AF20FFF740FFFFF754FF08BD70B505465A
:101410000C4605F1B001C8B20021FFF734FF04F01B
:10142000F001102242EA21100021FFF72CFF04F006
:101430000F000021FFF727FF70BD2DE9F04107469F
:10144000884615461E4641463846FFF7DFFF002412
:1014500007E006EB4511085D0121FFF714FF601C52
:10146000C4B2102CF5DB791CC8B24146FFF7CEFFA1
:10147000002409E06900491C06EB0111085D012107
:10148000FFF701FF601CC4B2102CF3DBBDE8F08154
:101490002DE9F04706468A46174698464FF0000960
:1014A00046E018F809002038C5B29FB9711CC8B2CF
:1014B0005146FFF7ABFF00240AE005EB4501354A32
:1014C00002EB4101085D0121FFF7DDFE601CC4B2A3
:1014D000062CF2DB012F23D151463046FFF796FF51
:1014E000002408E004EB05112B4A505C0121FFF7B2
:1014F000CAFE601CC4B2082CF4DB711CC8B2514691
:10150000FFF784FF002409E004EB05110831224AAB
:10151000505C0121FFF7B7FE601CC4B2082CF3DB5E
:1015200009F1010000F0FF090AF1080000F0FF0ACC
:1015300018F809000028B4D1BDE8F0872DE9F0477C
:1015400005460E4617464FF000092C4615E0314679
:101550002046FFF75BFFB0460AE0494609F1010962
:10156000785C0121FFF78FFE08F1010000F0FF0811
:10157000B8F1800FF1DB601CC4B2082CE7DBBDE8DA
:10158000F08700009001214200002142000230005B
:10159000000801405E4000088642000810B56FF068
:1015A000040000F092F92E4800682E49B0FBF1F0DB
:1015B0002D4908700846007800EB4001C1EBC010CF
:1015C0004FF6FF7101EAC0002849088010BD0146AE
:1015D000254A12784A434FF0E0235A6100229A616B
:1015E0001A46126942F001021A6100BF4FF0E02270
:1015F000106900F001021AB100F48032002AF5D01F
:101600004FF0E022126922F001024FF0E0231A614C
:1016100000229A6170470146144A12884A434FF0EB
:10162000E0235A6100229A611A46126942F00102CF
:101630001A6100BF4FF0E022106900F001021AB1F8
:1016400000F48032002AF5D04FF0E022126922F037
:1016500001024FF0E0231A6100229A6170470000F6
:101660000000002000127A00280000202A0000203C
:10167000014600BF704700BF574A128802F040027F
:10168000002AF9D0C2B2544B1B1D1A80704710B506
:1016900086B00446012144F2040000F079FE4FF4C4
:1016A0000070ADF8140003208DF8160018208DF896
:1016B000170005A9494800F0AFFB4FF48060ADF872
:1016C000140004208DF8170005A9444800F0A4FB7D
:1016D00025208DF8000003208DF801008DF8020010
:1016E00001208DF80300684600F0A5F80194002061
:1016F000ADF80800ADF80A00ADF80C00ADF8100028
:101700000C20ADF80E0001A9334801F0F6FD0122CE
:1017100040F22551304801F088FE01212E4801F0A9
:1017200078FE06B010BD10B586B00446012148040D
:1017300000F03BFE0121042000F02AFE0420ADF859
:10174000140003208DF8160018208DF8170005A945
:10175000224800F061FB0820ADF8140004208DF849
:10176000170005A91D4800F057FB01940020ADF8B3
:101770000800ADF80A00ADF80C00ADF81000082024
:10178000ADF80E0001A9164801F0B7FD012114487B
:1017900001F03FFE06B010BD0BE00178104A121DAB
:1017A000118000BF0E49098801F040010029F9D0DD
:1017B000401C01780029F0D1704710B540F2255146
:1017C000054801F017FF30B1034801F093FE0549C9
:1017D000054A1288885410BD0038014000080140B5
:1017E00000440040480000203000002009488047A5
:1017F00009480047FEE7FEE7FEE7FEE7FEE7FEE7F3
:10180000FEE7FEE7FEE7FEE704480549054A064B0A
:1018100070470000D7060008310100087001002061
:10182000700700207003002070030020314901433D
:10183000314A1160704770B5002100230F22C4782F
:1018400004B32D4C246804F4E064C4F5E064210A78
:10185000C1F10403CA40447804FA03F184781440C7
:1018600021430901254C0678A155047804F01F0591
:101870000124AC4005786D11AD0005F1E025C5F8F7
:10188000004109E0047804F01F050124AC401C4D20
:101890000678761145F8264070BD1A4A0A40024380
:1018A000154B1B1F1A60704739B1134A121D12687D
:1018B0000243114B1B1D1A6006E00F4A121D1268ED
:1018C00082430D4B1B1D1A607047042808D14FF04E
:1018D000E021096941F004014FF0E022116107E0C5
:1018E0004FF0E021096921F004014FF0E02211617D
:1018F000704700000000FA050CED00E000E400E095
:1019000080E100E080FFFF1F10B50446FA488442E2
:1019100008D10121401500F055FD0021601500F0AF
:1019200051FD17E0F548844208D10121001500F06F
:1019300049FD0021201500F045FD0BE0F0488442F0
:1019400008D10121C80300F03DFD00214FF4004003
:1019500000F038FD10BD30B502460020002350686D
:10196000E84C20400D790C6844EA0524204350607F
:101970009068E54C2040D1E902542C434D7944EA6B
:10198000450420439060D06A20F470000C7C641EF3
:10199000E4B2234340EA0350D06230BD002101602D
:1019A000017141718160C16001210174704721B1F1
:1019B000826842F00102826003E0826822F0010244
:1019C0008260704721B1826842F48072826003E0D5
:1019D000826822F480728260704710B50023CBB217
:1019E0001AB144681C43446002E044689C4344606C
:1019F00010BD816841F008018160704701460020F8
:101A00008A6802F008020AB1012000E00020704755
:101A1000816841F0040181607047014600208A68B6
:101A200002F004020AB1012000E00020704721B159
:101A3000826842F4A002826003E0826822F4A0027D
:101A400082607047014600208A6802F480020AB171
:101A5000012000E00020704710B50A460021002355
:101A6000416821F46041531E41EA4331416010BD99
:101A700021B1426842F40062426003E0426822F40D
:101A8000006242607047F0B504460D460020002118
:101A9000092D11DDE068A5F10A0606EB46070726C9
:101AA00006FA07F18843A5F10A0606EB460603FA93
:101AB00006F10843E0600CE0206905EB45070726C6
:101AC00006FA07F1884305EB450603FA06F10843D9
:101AD0002061072A0FDA606B561E06EB86071F2669
:101AE00006FA07F18843561E06EB860605FA06F14C
:101AF0000843606322E00D2A0FDA206BD61F06EB45
:101B000086071F2606FA07F18843D61F06EB8606CE
:101B100005FA06F10843206310E0E06AA2F10D0621
:101B200006EB86071F2606FA07F18843A2F10D0689
:101B300006EB860605FA06F10843E062F0BD21B126
:101B4000826842F48012826003E0826822F480128C
:101B5000826070470146C86C80B2704766484C305E
:101B60000068704721B1426842F48062426003E03D
:101B7000426822F480624260704721B1426842F4B8
:101B80008052426003E0426822F480524260704713
:101B90000A460021816821F4E041114381607047C9
:101BA00021B1826842F40042826003E0826822F43C
:101BB00000428260704721B1826842F40212826062
:101BC00003E0826822F4021282607047014600201E
:101BD0008A6802F400120AB1012000E00020704778
:101BE000F0B504461546002000220026092911DD23
:101BF000E068A1F10A0707EB470C072707FA0CF288
:101C00009043A1F10A0707EB470703FA07F21043D5
:101C1000E0600CE0206901EB410C072707FA0CF2A9
:101C2000904301EB410703FA07F210432061A06BD8
:101C3000C0F30156EF1C06F1010CA7EB0C0707EBF4
:101C4000870C1F2707FA0CF29043EF1C06F1010CDA
:101C5000A7EB0C0707EB870701FA07F21043A06315
:101C6000F0BD10B50A4600210023816B21F440111C
:101C7000531E41EA0351816310BD08B50023009350
:101C80000090009B0B440093009B1A6008BD08B5B0
:101C9000024600200090009201F12800009B1844A9
:101CA00000900098006880B208BD0A460021416893
:101CB000164B194011434160704741628262704780
:101CC0000A460021416821F01F011143416070471D
:101CD00040B109490831096841F40001064A083257
:101CE000116007E004490831096821F40001024A43
:101CF00008321160704700000024014000280140B4
:101D0000003C0140FFFEF0FFFDF7F1FFFFFD3FFF4C
:101D10000246002013680B400BB1012000E00020B8
:101D20007047CA430260704770B502460020002326
:101D300000240B125568CEB205EA060415681D4052
:101D400015B10CB1012000E0002070BD00220A1284
:101D5000D34303607047000010B50446CC4884426A
:101D600008D10121042000F02DFB0021042000F007
:101D700029FB46E0C748844208D10121082000F031
:101D800021FB0021082000F01DFB3AE0C2488442FC
:101D900008D10121102000F015FB0021102000F0D7
:101DA00011FB2EE0BD48844208D10121202000F023
:101DB00009FB0021202000F005FB22E0B848844206
:101DC00008D10121402000F0FDFA0021402000F060
:101DD000F9FA16E0B348844208D10121802000F0CE
:101DE000F1FA0021802000F0EDFA0AE0AE488442CA
:101DF00007D10121801500F0E5FA0021A01500F0BF
:101E0000E1FA10BD10B50121084600F0DBFA00210F
:101E1000012000F0D7FA10BD2DE9F041024600255F
:101E20000026002000230024002791F803C00CF0B6
:101E30000F0591F803C00CF0100CBCF1000F03D09B
:101E400091F802C04CEA050591F800C0BCF1000F02
:101E500031D0146800202BE04FF0010C0CFA00F395
:101E6000B1F800C00CEA03069E4220D183004FF077
:101E70000F0C0CFA03F7BC4305FA03FC4CEA04040C
:101E800091F803C0BCF1280F06D14FF0010C0CFAF9
:101E900000FCC2F814C00AE091F803C0BCF1480F7E
:101EA00005D14FF0010C0CFA00FCC2F810C0401C28
:101EB0000828D1D31460B1F800C0BCF1FF0F34DDA5
:101EC000546800202EE000F1080C4FF0010808FAD9
:101ED0000CF3B1F800C00CEA03069E4221D1830046
:101EE0004FF00F0C0CFA03F7BC4305FA03FC4CEA65
:101EF000040491F803C0BCF1280F05D100F1080CCF
:101F000008FA0CF8C2F8148091F803C0BCF1480F2D
:101F100007D100F1080C4FF0010808FA0CF8C2F8DC
:101F20001080401C0828CED35460BDE8F0814FF6E5
:101F3000FF710180022181700421C1707047024647
:101F4000002093680B400BB1012000E00020704797
:101F50000146886880B2704702460020D3680B4073
:101F60000BB1012000E0002070470146C86880B234
:101F7000704701617047416170470AB1016100E03B
:101F800041617047C16070474FF480320A438261FB
:101F90008161826182698269704702460020434BF9
:101FA00018684FF68073184040EA021008433F4B10
:101FB000186070473E49C8617047F0B50A46002373
:101FC00000240021002500F00046B6F1004F02D1A8
:101FD000364EF16901E0354E7168C0F3034583B2B6
:101FE00000F44016B6F5401F08D121F070612F4E65
:101FF000766826F070662D4F7E6012E000F4801641
:10200000B6F5801F06D1032606FA05F4A14341F078
:10201000706106E0460D360103FA06F6B14341F061
:10202000706122B1460D360103FA06F6314300F025
:102030000046B6F1004F02D11C4EF16101E01B4E8B
:102040007160F0BD30B500228B071C0F0F2303FA1F
:1020500004F2164B08338C1053F824309343134C7E
:1020600008348D1044F8253023468C1053F8243062
:102070008C07240F00FA04F423430C4C08348D1011
:1020800044F8253030BD0A49DC3108607047000053
:1020900000080140000C0140001001400014014004
:1020A00000180140001C01400020014000000140D8
:1020B00000002042DF48006840F00100DD49086070
:1020C00008464068DC490840DA494860084600682C
:1020D000DA490840D74908600846006820F48020A3
:1020E00008600846406820F4FE0048604FF41F0076
:1020F00088607047CF49096821F48031CD4A11606A
:102100001146096821F480211160B0F5803F03D0A9
:10211000B0F5802F0ED106E0C649096841F4803140
:10212000C44A116007E0C349096841F4A021C14ACB
:10213000116000E000BF00BF704710B501460022EB
:10214000002300204A11012A02D1BA4C236806E07C
:10215000022A02D1B74C236A01E0B64C636A01F04F
:102160001F02012494401C400CB1012000E000201B
:1021700010BD38B5002000900024002500BF31209C
:10218000FFF7DBFF05460098401C00900098B0F573
:10219000A06F01D0002DF2D03120FFF7CEFF08B1A3
:1021A000012400E00024204638BD01460020A14A59
:1021B000106820F0F80040EAC10010607047A049A4
:1021C00008607047024600209A4B586820F47C1043
:1021D00042EA01031843974B5860704798490866D4
:1021E000704701460020934A506820F003000843DE
:1021F000506070478F48406800F00C0070470146FF
:1022000000208C4A506820F0F0000843506070476E
:1022100001460020874A506820F4E060084350607F
:10222000704701460020834A506820F4605040EA1D
:10223000C1005060704729B17E4A527A02437D4BFB
:102240005A7204E07B4A527A82437A4B5A72704740
:102250007B49D8310860704701460020754A5068B4
:1022600020F440400843506070470021714A2032FA
:102270001170704A82F82010012802D004280AD177
:1022800004E001216B4A2032117005E00521694A02
:102290002032117000E000BF00BF7047694908603C
:1022A00070476449096A0143624A1162704765498F
:1022B00044390860704730B5002100220024002313
:1022C0005C4D6D6805F00C0121B1042905D0082989
:1022D00023D105E05C4D056022E05B4D05601FE009
:1022E000544D6D6805F47012524D6D6805F48034DC
:1022F000022505EB92421CB9544D554305600BE095
:102300004C4D6D6805F400351DB1504D55430560C9
:1023100002E04D4D5543056002E04B4D056000BFA6
:1023200000BF444D6D6805F0F0010909484D6B5C34
:102330000568DD4045603F4D6D6805F4E061090AC0
:10234000434D6B5C4568DD4085603A4D6D6805F432
:102350006051C90A3E4D6B5C4568DD40C560354D36
:102360006D6805F44041890B3A4D6B5CC568B5FB5F
:10237000F3F5056130BD29B12E4A526902432D4B58
:102380005A6104E02B4A526982432A4B5A617047D2
:1023900029B1284A92690243264B9A6104E0254AF2
:1023A00092698243234B9A61704729B1214AD269CD
:1023B0000243204BDA6104E01E4AD26982431D4B7E
:1023C000DA61704729B11B4AD2680243194BDA60BF
:1023D00004E0184AD2688243164BDA60704729B18C
:1023E000144A12690243134B1A6104E0114A12693C
:1023F0008243104B1A617047124940390860704798
:102400000F49C86470470B49C87170470948406A52
:1024100040F0807007494862704701460020054A35
:1024200092680A400AB1012000E00020704701498B
:1024300088727047001002400000FFF8FFFFF6FEB0
:10244000000042428004424200127A0000093D002E
:10245000320000204200002010B50446FE488442AD
:1024600008D10121C014FFF7ADFF0021E014FFF7F0
:10247000A9FFC4E0B4F1804F08D101210846FFF75D
:10248000AEFF00210120FFF7AAFFB8E0F348844225
:1024900008D101210220FFF7A2FF00210220FFF74F
:1024A0009EFFACE0EE48844208D101210420FFF7F2
:1024B00096FF00210420FFF792FFA0E0E948844244
:1024C00008D101210820FFF78AFF00210820FFF72B
:1024D00086FF94E0E448844208D101211020FFF7F0
:1024E0007EFF00211020FFF77AFF88E0DF4884425A
:1024F00008D101212020FFF772FF00212020FFF7E3
:102500006EFF7CE0DA48844208D101214014FFF7D5
:1025100059FF00216014FFF755FF70E0D548844251
:1025200009D10121C804FFF74DFF00214FF400201D
:10253000FFF748FF63E0D048844209D10121080534
:10254000FFF740FF00214FF48010FFF73BFF56E0FC
:10255000CA48844209D101214805FFF733FF002111
:102560004FF40010FFF72EFF49E0C548844208D120
:1025700001214020FFF733FF00214020FFF72FFF0C
:102580003DE0C048844208D101218020FFF727FFA9
:1025900000218020FFF723FF31E0BB48844208D1AF
:1025A00001218015FFF71BFF0021A015FFF717FF82
:1025B00025E0B648844209D101210804FFF702FF53
:1025C00000214FF48030FFF7FDFE18E0B048844250
:1025D00009D101214804FFF7F5FE00214FF4003036
:1025E000FFF7F0FE0BE0AB48844208D101218804DC
:1025F000FFF7E8FE00214FF48020FFF7E3FE10BD57
:1026000000220288944B98420ED0994B98420BD0EE
:10261000B0F1804F08D0914B984205D0904B984232
:1026200002D0904B984204D14FF68F731A404B88DA
:102630001A438D4B984207D08C4B984204D04FF6EA
:10264000FF431A40CB881A4302808B8883850B880E
:102650000385814B98420BD0854B984208D08B4B19
:10266000984205D08A4B984202D08A4B984201D1B9
:102670000B7A038601238382704770B50024002201
:102680000023058C4FF6FE7635400584028C838846
:10269000048B4FF68F752C40B51E2C400D882C43B3
:1026A000751E2A400D892A434D882A436A4DA84247
:1026B0000BD06F4DA84208D0744DA84205D0744D80
:1026C000A84202D0734DA84213D14FF6F7752A40A5
:1026D0004D892A434FF6FB752A408D882A434FF6D1
:1026E000FF652B404FF6FF552B408D892B43CD893D
:1026F0002B4383800483CD888586028470BD70B5AA
:10270000002400220023058C4FF6EF763540058427
:10271000028C8388048B48F6FF752C404FF6FF45EA
:102720002C400D884FF6FF7606EA05252C434FF620
:10273000DF752A400D8906EA05152A434D8806EA09
:1027400005152A43444DA84202D0494DA8421DD147
:102750004FF67F752A404D894FF6FF7606EA05153C
:102760002A434FF6BF752A408D8806EA05152A438D
:102770004FF6FF352B404FF2FF752B408D8906EA4F
:1027800085052B43CD8906EA85052B438380048389
:10279000CD880587028470BD70B500240022002317
:1027A000058C4FF6FF6635400584028C8388848B48
:1027B0004FF68F752C404FF6FC752C400D882C433E
:1027C0004FF6FF552A400D894FF6FF7606EA05259C
:1027D0002A434D8806EA05252A431F4DA84202D008
:1027E000234DA8421DD14FF2FF752A404D894FF667
:1027F000FF7606EA05252A434FF6FF352A408D88E5
:1028000006EA05252A434EF6FF752B404DF6FF7567
:102810002B408D8906EA05152B43CD8906EA05155F
:102820002B4383808483CD888587028470BD70B5F7
:10283000002200230024058C4EF6FF7635400584E7
:10284000038C8488828B48F6FF752A404FF6FF453B
:102850002A400D8820E00000002C014000040040C8
:1028600000080040000C0040001000400014004030
:1028700000340140004C0140005001400054014030
:1028800000180040001C00400020004000400140B3
:1028900000440140004801404FF6FF7606EA052556
:1028A0002A434DF6FF752B400D8906EA05352B436B
:1028B0004D8806EA05352B43FA4DA84202D0FA4D61
:1028C000A84208D14BF6FF752C408D894FF6FF7654
:1028D00006EA85152C4384808283CD88A0F8405079
:1028E000038470BD828B4FF2FF331A408283828B48
:1028F0004FF6FF7303EA01231A4382837047F0B552
:102900000C461546002200210026078C4EF6FF7C5F
:1029100007EA0C070784828B018C4FF6FF7707EAE2
:10292000043640F6FF473A404FF6FF7707EA05279F
:102930003A434FF6FF7707EA03373A43D94FB84295
:102940000ED0D94FB8420BD0B0F1804F08D0D74F3E
:10295000B84205D0D64FB84202D0D64FB84206D1C1
:102960004DF6FF77394046F48057394305E047F686
:10297000FF57394044F48057394382830184F0BDC6
:10298000828B4FF6F3731A408283828B0A438283D1
:102990007047F0B50C461546002200210026078C32
:1029A0004FF6FF6C07EA0C070784828B018C4FF609
:1029B000FF7707EA04264FF60C773A404FF6FF7789
:1029C00007EA03172F433A43B64FB8420ED0B64F2B
:1029D000B8420BD0B0F1804F08D0B44FB84205D008
:1029E000B34FB84202D0B34FB84206D14FF6FF57AB
:1029F000394046F48077394305E04FF2FF573940BC
:102A000044F48077394382830184F0BD028B4FF216
:102A1000FF331A400283028B4FF6FF7303EA012350
:102A20001A4302837047F0B50C4615460022002178
:102A30000026078C4FF6EF7C07EA0C070784028B11
:102A4000018C4FF6FF7707EA041640F6FF473A403D
:102A50004FF6FF7707EA03373A434FF6FF7707EA67
:102A600005273A438F4FB8420ED08F4FB8420BD054
:102A7000B0F1804F08D08D4FB84205D08C4FB8428E
:102A800002D08C4FB84206D14FF6DF77394046F07E
:102A90001007394305E04FF65F77394044F01007DF
:102AA000394302830184F0BD028B4FF6F3731A4061
:102AB0000283028B0A4302837047F0B50C46154629
:102AC00000220021068C4FF6FE773E400684028BE2
:102AD000018C4FF60C7632407E1C06EA03162E431C
:102AE0003243704EB0420ED06F4EB0420BD0B0F1B8
:102AF000804F08D06D4EB04205D06D4EB04202D02E
:102B00006C4EB04206D14FF6FD76314044F00106DE
:102B1000314305E04FF6F576314044F0010631438C
:102B200002830184F0BD70B505460C465D488542C0
:102B30000ED05D4885420BD0B5F1804F08D05B4880
:102B4000854205D05A48854202D05A48854200D174
:102B500000E000BF208850B92389A28861882846F8
:102B6000FFF7ABFFE1882846FFF79EFF25E02088AE
:102B700004280AD12389A28861882846FFF753FFD9
:102B8000E1882846FFF742FF17E0208808280AD18D
:102B90002389A28861882846FFF7FBFEE188284642
:102BA000FFF7EEFE09E02389A28861882846FFF737
:102BB000A6FEE1882846FFF795FE70BD2DE9F0419D
:102BC00005460C4600260127608808B9022600E069
:102BD0000026A088012801D1022700E001272088D3
:102BE000A0B92389A28861882846FFF766FFE1889B
:102BF0002846FFF759FF23893A4631462846FFF712
:102C000012FFE1882846FFF701FF13E02389A2881D
:102C100061882846FFF707FFE1882846FFF7F6FEA0
:102C200023893A4631462846FFF747FFE188284680
:102C3000FFF73AFFBDE8F0810A884B881A438B887A
:102C40001A43CB881A430B891A434B891A438B8941
:102C50001A43A0F8442070474FF6FF71818000218D
:102C60000180C18041800172704700210180418054
:102C70008180C180018141818181C18170470021B2
:102C800001804180012181800021C1800181704744
:102C90000021018041808180C18001814181818149
:102CA00070470000002C0140003401400004004047
:102CB00000080040000C004021B1028842F00102EF
:102CC000028004E002884FF6FE731A4002807047CB
:102CD00031B1B0F8442042F40042A0F8442005E0AD
:102CE000B0F84420C2F30E02A0F8442070471AB195
:102CF00083890B43838102E083898B4383817047FF
:102D00008182704741EA0203A0F8483070471AB147
:102D100083890B43838102E083898B4383817047DE
:102D200001894FF6F8721140018170470A4600216F
:102D300001894FF68F73194011430181704730B5F7
:102D400004460D4629462046FFF7F0FF208940F053
:102D50000700208130BD2DE9F04104460D4616469E
:102D60001F46602D06D13B46012231462046FFF723
:102D70005AFE05E03B46012231462046FFF79DFE04
:102D800029462046FFF7D2FF208940F00700208126
:102D9000BDE8F08130B50C4600210189C9B24FF67B
:102DA000FF7505EA0325154325432943018130BDFD
:102DB0002DE9F04105460E46174698460024434645
:102DC0003A4631462846FFF7E5FF2C894FF6F87062
:102DD000044044F007044FF68F70044044F0700440
:102DE0002C81BDE8F081F0B504460D4616461F461D
:102DF0003B46324629462046FFF7CCFF208940F467
:102E000080402081F0BD0185828270470A46002102
:102E100001884FF68F731940114301807047F0B558
:102E20000C4615461E460021002200230189028B14
:102E3000038C4FF6F877394021434FF6FC473A4070
:102E400040F201173A434FF6DD773B404FF6FF77EC
:102E500007EA06172F433B43018102830384F0BD39
:102E60000A460021018B4FF68F73194011430183ED
:102E700070470A460021018B48F6FF7319404FF650
:102E8000FF7303EA02231943018370470A460021B6
:102E9000818B4FF68F7319401143818370470A4627
:102EA0000021818B48F6FF7319404FF6FF7303EA48
:102EB000022319438183704721B1028842F08002C6
:102EC000028004E002884FF67F731A400280704748
:102ED00021B1828842F00402828004E082884FF6A9
:102EE000FB731A408280704721B1828842F0080249
:102EF000828004E082884FF6F7731A408280704720
:102F000021B1828842F00102828004E082884FF67B
:102F1000FE731A40828070470A460021018B4FF6EB
:102F2000F77319401143018370470A460021018B52
:102F30004FF2FF7319404FF6FF7303EA0223194360
:102F4000018370470A460021818B4FF6F7731940C1
:102F50001143818370470A460021818B4FF2FF7332
:102F600019404FF6FF7303EA022319438183704728
:102F70000A460021018B4FF6FB7319401143018370
:102F800070470A460021018B4FF6FF3319404FF678
:102F9000FF7303EA02231943018370470A460021A5
:102FA000818B4FF6FB7319401143818370470A46AA
:102FB0000021818B4FF6FF3319404FF6FF7303EA70
:102FC00002231943818370470A460021018B4FF683
:102FD0007F7319401143018370470A460021018B1A
:102FE000C1F30E014FF6FF7303EA02231943018375
:102FF00070470A460021818B4FF67F7319401143B9
:10300000818370470A460021818BC1F30E014FF680
:10301000FF7303EA02231943818370470A460021A4
:10302000018C4FF6FD7319401143018470470A4625
:103030000021018C4FF6F77319401143018470474A
:103040000A460021018C4FF6DF7319404FF6FF73DB
:1030500003EA02131943018470470A460021018CD8
:103060004FF67F7319404FF6FF7303EA02131943BB
:10307000018470470A460021018C4FF6FF53194026
:103080004FF6FF7303EA02231943018470470A468F
:103090000021018C4FF2FF7319404FF6FF7303EAD2
:1030A00002231943018470470A460021018C4DF622
:1030B000FF7319404FF6FF7303EA0233194301848B
:1030C000704730B5002301248C40A3B2048C9C438C
:1030D0000484048C02FA01F5ADB22C43048430BDA3
:1030E00030B5002304248C40A3B2048C9C43048498
:1030F000048C02FA01F5ADB22C43048430BD70B5E6
:103100000346002000241846183001258D40ACB23B
:103110001D8CA5431D8409B1082909D100EB61006C
:10312000056825F0700505600568154305600EE02B
:103130000D1FC5F34E052844056825F4E0450560DC
:1031400005684FF6FF7606EA02263543056070BD36
:1031500021B1028842F00202028004E002884FF6A8
:10316000FD731A400280704721B1028842F00402C8
:10317000028004E002884FF6FB731A400280704719
:1031800021B1828842F08002828004E082884FF67A
:103190007F731A408280704702884FF6F7731A4097
:1031A000028002880A430280704782884FF68F733C
:1031B0001A40828082880A438280704702894FF6D3
:1031C000F8731A40028102890A430281704702891A
:1031D0004FF67F731A40028102890A4302817047C9
:1031E0008184704781857047818670470187704769
:1031F00081877047A0F84010704702884FF6FF4360
:103200001A40028002880A43028070470146888E75
:1032100070470146088F70470146888F7047014606
:10322000B1F8400070470146888C70470146088D10
:10323000704702460020138A0B400BB1012000E0CA
:1032400000207047CA430282704730B50246002012
:1032500000230024158A05EA0103958905EA010483
:1032600013B10CB1012000E0002030BDCA4302823E
:103270007047000010B50446FB48844209D1012183
:103280008803FFF79FF800214FF48040FFF79AF87A
:1032900032E0F648844209D101214804FFF79FF843
:1032A00000214FF40030FFF79AF825E0F0488442FF
:1032B00009D101218804FFF792F800214FF4802002
:1032C000FFF78DF818E0EB48844209D10121C804CA
:1032D000FFF785F800214FF40020FFF780F80BE09E
:1032E000E548844208D101210805FFF778F800215C
:1032F0004FF48010FFF773F810BD2DE9F04786B04A
:1033000005460E460024A24600BFA1460027B0890C
:1033100000B100BF2F462C8A4CF6FF700440F088A5
:1033200004432C82AC894EF6F3100440B0883189F6
:103330000843718908430443AC81AC8A4FF6FF40CF
:103340000440B0890443AC8201A8FEF7B4FFC6482C
:10335000874202D1DDF810A001E0DDF80CA0A889B9
:1033600000F4004040B10AEBCA0000EB0A103168DB
:103370004900B0FBF1F807E00AEBCA0000EB0A10C5
:1033800031688900B0FBF1F86420B8FBF0F004016B
:103390002009642101FB1089A88900F4004040B194
:1033A000322000EBC900B0FBF1F000F0070004434D
:1033B00008E0322000EB09106421B0FBF1F000F0CE
:1033C0000F0004432C8106B0BDE8F0874FF416517E
:1033D000016000218180C18001810C214181002197
:1033E0008181704710B502460020108A4FF2FF031A
:1033F00018400B884C8823438C882343CC88234374
:103400001843108210BD0021018041808180C1805D
:10341000704721B1828942F40052828104E082899E
:103420004DF6FF731A4082817047F0B503460024C1
:1034300000260025002040F66A17B94200D100BFDF
:103440001846C1F3421401F01F06012707FA06F5DA
:10345000012C01D10C3004E0022C01D1103000E02D
:1034600014301AB107682F43076002E00768AF43C2
:103470000760F0BD1AB1838A0B43838202E0838A1E
:103480008B4383827047028A4FF6F0731A400282A0
:10349000028A0A430282704782894FF2FF731A4000
:1034A000828182890A438281704721B1828942F0F8
:1034B0000202828104E082894FF6FD731A40828104
:1034C0007047028A4FF6DF731A400282028A0A436B
:1034D0000282704721B1028A42F48042028204E0F3
:1034E000028A4BF6FF731A4002827047C1F308024A
:1034F0008280704701468888C0F308007047818940
:1035000041F0010181817047028BD2B20283028BAC
:1035100042EA012202837047028B02F47F42028357
:10352000028B0A430283704721B1828A42F0200253
:10353000828204E0828A4FF6DF731A4082827047EB
:1035400021B1828A42F01002828204E0828A4FF620
:10355000EF731A408282704721B1828A42F00802DA
:10356000828204E0828A4FF6F7731A4082827047A3
:1035700021B1828942F40042828103E08289C2F350
:103580000E028281704721B1828A42F400628282F7
:1035900004E0828A4FF2FF731A4082827047828A67
:1035A0004FF6FB731A408282828A0A4382827047F6
:1035B00021B1828A42F00202828204E0828A4FF6BE
:1035C000FD731A408282704702460020B1F5007FE9
:1035D00000D100BF13880B400BB1012000E0002098
:1035E000704701F40072B2F5007F00D100BFCA43FA
:1035F0000280704770B50246002400230025002099
:1036000040F66A16B14200D100BFC1F3421501F085
:103610001F03012606FA03F3012D02D196893340D8
:1036200006E0022D02D1168A334001E0968A33402B
:103630000C12012606FA04F41688344013B10CB1BA
:10364000012000E0002070BD10B50022002340F6EC
:103650006A14A14200D100BF0A1201249440A3B20F
:10366000DC43048010BD00000038014000440040ED
:1036700000480040004C0040005000407047704738
:10368000704770477047754600F02CF8AE4605004D
:103690006946534620F00700854618B020B5FEF76E
:1036A000B3F8BDE820404FF000064FF000074FF0A0
:1036B00000084FF0000B21F00701AC46ACE8C00950
:1036C000ACE8C009ACE8C009ACE8C0098D46704759
:1036D00010B50446AFF300802046BDE81040FCF76B
:1036E0006EBD00000048704710010020491058BF0F
:1036F000C1F140415B1058BFC3F140438B42EFF32F
:103700000080704751EA030C17D41CF5801F58BF86
:10371000BCF5801F00F10680994218BF704708BFB2
:103720009042704707D711F5801F58BF13F5801FCF
:1037300019D499427047894270471CF5801F08D5FB
:10374000BCF5801FF7D58B4218BF704708BF824277
:1037500070474FF4001C1CEB410F38BF1CEB430FAC
:1037600001D28B42704770B500F008F892244900EE
:103770004FF000514FF08053FFF7B8BF0EF1020E2B
:103780002EF0030E5EF8046B364205D4012A43EB9B
:10379000030515F5001F12D8012841EB010C1CF59B
:1037A000001F0CD80ED14FEAD17C15F5001F0CEB91
:1037B0004C0C0CF1020C08BF4CEBD37C04E04FF036
:1037C000080C01E04FEAD37C0CEB4C0526FA05F619
:1037D00006F00706B6F1040C06D20EEB860CBDE827
:1037E00070404CF0010C6047DFE80CF0090B02025E
:1037F0004FF000414FF00000A1F5002170BD1946C7
:103800001046012851EB010418BFD4F5001484BF01
:10381000002001F0004170BD0808A0F500114FEA3A
:103820003101704753EA010C17D41CF5801F58BFB3
:10383000BCF5801F00F106808B4218BF704708BF9F
:103840008242704707D713F5801F58BF11F5801FBC
:1038500019D48B4270479B4270471CF5801F08D5D6
:10386000BCF5801FF7D5994218BF704708BF90423A
:1038700070474FF4001C1CEB430F38BF1CEB410F8B
:1038800001D2994270470FB40CBC03BCFFF76BBF69
:1038900043004FEAD30C4FEA3C0C43401FBF4007A4
:1038A0000CF1605113F0FE4F70471CF0006F03D114
:1038B00000200CF0004170470CF0004343EA5070C8
:1038C00010B540EACC0000F0DEF900BF0000009225
:1038D0004FEA0001FFF7A0BF4FF000414FF000009A
:1038E000A1F500217047401058BFC0F14040491079
:1038F00058BFC1F140418142EFF3008070470000A2
:103900004FF47F0C1CEAD0121EBF1CEAD11392EABE
:103910000C0F93EA0C0F00F0858090EA010F48BF6E
:1039200042F4807240F4000C41F400002CF07F411E
:1039300020F07F4000B58142A2EB03020FF2081C89
:10394000ACEB504EC0F100009EF800E04FEA4E0E86
:1039500000FB0EFC38BF49004FEA2C1C02F5FA02AE
:103960000CFB0EF34FEACE1E4FEA112C4FEAC12199
:103970000EEB635E42EB22420EFB0CFC4FEA1C5343
:1039800000FB03114FEA112C4FEA01310EFB0CFC36
:103990004FEADC4C00FB0C11C14228BF09184CEB6C
:1039A00003335DF804EB10EB410143EBC250B2F579
:1039B0007C0F38BF704729D512F0F00F1CBF00F103
:1039C000C04000F000407047008182838485868774
:1039D00088898B8C8D8E8F919293959697999A9CCE
:1039E0009D9FA0A2A3A5A7A8AAACAEB0B2B3B5B73D
:1039F000B9BCBEC0C2C5C7C9CCCED1D4D7D9DCDF13
:103A0000E2E6E9ECF0F3F7FAFE0000004FEA400CC2
:103A10000CF1807CBCF17E4F28BF7047B0F1C040F4
:103A200000F077B990EA010F0CEAD11348BF42F4D5
:103A30008072624538BF634507D213F47F0F16D0FA
:103A400080EA010000F00040704710B500F01BF95B
:103A5000097EFC3E00F005B880EA010000F000405D
:103A6000704780EA010000F0004000F052B912F403
:103A70007F0F04BF0248704780EA010000F049B997
:103A80000000C07FC10DD1F19E0206DB4FEA00238A
:103A900043F0004323FA02F07047004207D54FEA93
:103AA0004001B1F1FE4F02D24FF00000704710B557
:103AB00000F0E9F849922480002070476FEA200066
:103AC0007047000010F0004148BF4042B0FA80F358
:103AD00010FA03F2C3F19D030BD051EAC35101EB7D
:103AE0001220530638BF704700F1010008BF20F0D4
:103AF00001007047B0FA80F310FA03F2C3F19D039E
:103B00000AD0D90501EB1220530638BF704700F1E7
:103B1000010008BF20F001007047000050EA010CCE
:103B200000F113801CF5000F58BFBCF5000F01D445
:103B30008842704707D710F5000F58BF11F5000FE6
:103B400015D488427047894270471CF5000F04D590
:103B5000BCF5000FF7D5814270474FF0807C1CEB1D
:103B6000400F38BF1CEB410F01D28142704710B5A6
:103B700000F089F8922449004FF000504FF0805136
:103B8000FFF7B1BE4FF47F0C1CEAD0121EBF1CEA37
:103B9000D11392EA0C0F93EA0C0F00F0478090EAE1
:103BA000010F48BF42F480724FF0004C4CEA0020F5
:103BB0004CEA012102EB0302A0FB0113A2F5000273
:103BC000002918BF43F001035B0028BF4FEA33030D
:103BD00042EB22425FEA132C4CEBC2502EBFBCEBEF
:103BE000436FB2F57C0F70474FEA036CBCF1004F96
:103BF00008BF20F00100B2F57C0F38BF70470BD52D
:103C000082F0FF0212F5803FC8BF704700F1C0404C
:103C1000D8BF00F00040704700F5000C5FEA4C0C84
:103C200048BF7047B0F1C04000F073B890EA010F90
:103C30000CEAD11348BF42F48072624538BF634535
:103C400004D280EA010000F00040704710B500F097
:103C50001AF800BF8900013E00F007B800F009B86B
:103C60005FEA410C5FEA1C6C08D080EA010000F0BA
:103C700050B85FEA400C5FEA1C6CF6D14FF0004090
:103C8000A0F5800070470EF1020E2EF0030E5EF8D4
:103C9000044B244204D44FEA4102B2F17F4F11D8C1
:103CA0004FEA4003B3F17F4F0CD80ED14FEAD07CDE
:103CB000B2F17F4F0CEB4C0C0CF1020C08BF4CEB3B
:103CC000D17C04E04FF0080C01E04FEAD17C0CEB12
:103CD0004C0324FA03F404F00704B4F1040C06D2F4
:103CE0000EEB840CBDE810404CF0010C6047DFE89F
:103CF0000CF0070802024FF00040A0F5800010BD54
:103D00000846420018BFD2F1807288BF00F0004020
:103D100010BDFF2141EAD050C005704751EA000CA8
:103D200000F113801CF5000F58BFBCF5000F01D443
:103D30008142704707D711F5000F58BF10F5000FEB
:103D400015D481427047894270471CF5000F04D595
:103D5000BCF5000FF7D5884270474FF0807C1CEB14
:103D6000410F38BF1CEB400F01D28842704780EAF8
:103D7000010081EA000180EA0100FFF7F8BE048437
:103D800084FC848400040484E41C84040400206013
:103D9000201F101004020100FF0000010600101097
:103DA000FF101020A4ACB5A6B4ACA42020001030A5
:103DB0001F0888804F3A0A0A7A8A8F80E0004040C4
:103DC000424458C0407F40C0504846404000808038
:103DD000402018070000003F40404040780020305D
:103DE000AC632018809090FF90494A4840002267B9
:103DF00022121212404020130C142241F8000040FD
:103E000042445840407F40405048C60000000040B7
:103E100044444444444444444444FF0000000808EB
:103E2000E8292E28E80808C80C0BE808080000005C
:103E3000FF0949897F00000F40807F0000001010BB
:103E4000D0FF9014E4AFA4A4A4AFE40400000403E2
:103E500000FF00894B2A1A0E1A2A4B888000101086
:103E600090909090901010FF1010111610000020EC
:103E700060203F10101000030C102040F8000004D8
:103E800004745454555654545474040400008483E8
:103E900041211D05050505057D818185E3000000A3
:103EA000FC242424FC252624FC2424240400403063
:103EB0008F80844C55252525554C808080000080BE
:103EC000601E20C000FF0080601E20C00000414036
:103ED00044444444447F44444444444040002021FA
:103EE000F2080410888447344484940C000004844D
:103EF00085945D57242424544C4484050500C8B897
:103F00008FE88888804828090E0828488800081803
:103F100008FF04048080432C102C4380800000F2B2
:103F2000929292929E00F2929292929E00000010C3
:103F3000114A88443F0010114A88443F00008080A5
:103F400080808080808080808080808080000000F1
:103F50000000000000000000000000000000808061
:103F6000FC96E584FC00A09E82829EA020008060DA
:103F70001F024C807F8080432C102C43800004045F
:103F800084C4A49C85868484A4C484040400008022
:103F90008040300F0000007F808081F00000000032
:103FA000007E424242C24242427E00000000804007
:103FB000300E1020407F4444444444404000000000
:103FC0002424242424FC2222222322000000020292
:103FD00002020242827F0202020202020200404406
:103FE000C4444444401010FF101010F00000103C76
:103FF000131014B840300E014080403F0000000014
:1040000000F8888C8A89888888F800000000000001
:1040100000FF44444444444444FF00000000404442
:10402000C4444444401010FF101010F00000103C35
:10403000131014B840300E014080403F00000000D3
:104040000000000000000000000000000000000070
:1040500036360000000000000000000000000000F4
:10406000000000000000002F000000000700070013
:1040700000147F147F1400242A7F2A12006264082F
:1040800013230036495522500000050300000000AC
:104090001C224100000041221C000014083E0814AC
:1040A0000008083E0808000000A06000000808089A
:1040B0000808000060600000002010080402003EB4
:1040C0005149453E0000427F40000042615149464F
:1040D000002141454B31001814127F10002745453F
:1040E0004539003C4A494930000171090503003651
:1040F0004949493600064949291E00003636000064
:104100000000563600000008142241000014141468
:104110001414000041221408000201510906003263
:104120004959513E007C1211127C007F49494936A1
:10413000003E41414122007F4141221C007F49490C
:104140004941007F09090901003E4149497A007F40
:104150000808087F0000417F4100002040413F01E6
:10416000007F08142241007F40404040007F020C45
:10417000027F007F0408107F003E4141413E007FE6
:1041800009090906003E4151215E007F09192946AF
:104190000046494949310001017F0101003F40408B
:1041A000403F001F2040201F003F4038403F006339
:1041B000140814630007087008070061514945435B
:1041C00000007F41410000552A552A550000414119
:1041D0007F00000402010204004040404040000013
:1041E00001020400002054545478007F48444438AD
:1041F00000384444442000384444487F0038545434
:10420000541800087E0901020018A4A4A47C007FB1
:10421000080404780000447D4000004080847D0054
:10422000007F102844000000417F4000007C0418FB
:104230000478007C0804047800384444443800FCC6
:10424000242424180018242418FC007C08040408E2
:1042500000485454542000043F444020003C404057
:10426000207C001C2040201C003C4030403C00448E
:1042700028102844001CA0A0A07C004464544C4496
:1042800014141414141400000000000000000000B6
:10429000000000000000000000F800000000000026
:1042A00000333000000000100C06100C0600000067
:1042B00000000000000040C07840C0784000043F8B
:1042C00004043F040400007088FC0830000000185B
:1042D00020FF211E0000F008F000E018000000217F
:1042E0001C031E211E0000F00888700000001E2123
:1042F00023241927211010160E00000000000000D2
:10430000000000000000000000E0180402000000AF
:1043100000071820400000020418E00000000040E0
:10432000201807000000404080F08040400002025A
:10433000010F01020200000000F000000000010176
:10434000011F01010100000000000000000080B01A
:1043500070000000000000000000000000000001EC
:104360000101010101010000000000000000003017
:1043700030000000000000000000806018040060B1
:1043800018060100000000E010080810E000000F0F
:10439000102020100F00001010F800000000002076
:1043A000203F2020000000700808088870000030BE
:1043B0002824222130000030088888483000001866
:1043C000202020110E000000C02010F8000000077F
:1043D0000424243F240000F80888880808000019F5
:1043E000212020110E0000E0108888180000000F26
:1043F000112020110E0000380808C83808000000FD
:10440000003F000000000070880808887000001C51
:10441000222121221C0000E010080810E00000000A
:10442000312222110F00000000C0C0000000000077
:10443000003030000000000000800000000000009C
:104440008060000000000000804020100800000193
:104450000204081020004040404040404000040456
:104460000404040404000008102040800000002020
:10447000100804020100007048080808F00000005D
:10448000003036010000C030C828E810E0000718EE
:10449000272423140B000000C038E0000000203C5B
:1044A00023020227382008F8888888700000203FFF
:1044B000202020110E00C030080808083800071816
:1044C00020202010080008F808080810E000203F0D
:1044D000202020100F0008F88888E8081000203FEE
:1044E00020202320180008F88888E8081000203FC2
:1044F000200003000000C03008080838000007183A
:104500002020221E020008F808000008F808203FBA
:10451000210101213F20000808F8080800000020C0
:10452000203F2020000000000808F8080800C08094
:1045300080807F00000008F888C028180800203F0D
:1045400020012638200008F8080000000000203F65
:1045500020202020300008F8F800F8F80800203F5C
:10456000003F003F200008F830C00008F808203F56
:10457000200007183F00E01008080810E0000F10A6
:10458000202020100F0008F808080808F000203F3D
:10459000210101010000E01008080810E0000F18D8
:1045A000242438504F0008F8888888887000203FFD
:1045B0002000030C302000708808080838000038FC
:1045C000202121221C00180808F808081800000003
:1045D000203F2000000008F808000008F808001F2D
:1045E000202020201F000878880000C8380800001C
:1045F00007380E010000F80800F80008F800033C36
:104600000700073C030008186880806818082030FD
:104610002C03032C30200838C800C83808000000DC
:10462000203F2000000010080808C8380800203883
:10463000262120201800000000FE020202000000D7
:10464000007F40404000000C30C00000000000002F
:1046500000010638C00000020202FE000000004017
:1046600040407F000000000004020202040000003D
:10467000000000000000000000000000000080803A
:104680008080808080800002020400000000000022
:104690000000000000000000808080800000001901
:1046A000242222223F2008F8008080000000003FE2
:1046B000112020110E000000008080800000000EFC
:1046C000112020201100000000808088F800000EDA
:1046D000112020103F200000808080800000001FFB
:1046E000222222221300008080F08888881800206F
:1046F000203F202000000000808080808000006B30
:1047000094949493600008F8008080800000203F1B
:10471000210000203F200080989800000000002029
:10472000203F20200000000000809898000000C07A
:104730008080807F000008F8000080808000203F9B
:1047400024022D302000000808F80000000000209E
:10475000203F202000008080808080808000203FDB
:1047600020003F20003F8080008080800000203FAC
:10477000210000203F200000808080800000001F7A
:10478000202020201F00808000808000000080FF0B
:10479000A12020110E000000008080808000000E0B
:1047A000112020A0FF808080800080808000202059
:1047B0003F212000010000008080808080000033C5
:1047C000242424241900008080E080800000000060
:1047D000001F202000008080000000808000001F5B
:1047E000202020103F2080808000008080800001F9
:1047F0000E300806010080800080008080800F302D
:104800000C030C300F0000808000808080000020AE
:10481000312E0E31200080808000008080808081D9
:104820008E7018060100008080808080800000214A
:10483000302C2221300000000000807C02020000A9
:104840000000003F404000000000FF0000000000AA
:104850000000FF0000000002027C80000000004019
:10486000403F0000000000060101020204040000B5
:104870000000000000000000984800080000002030
:10488000480000006C010008E048000848000020D3
:10489000280700008801000800A24A040000000068
:1048A00000000000010203040607080921000000BF
:1048B00000000000010000000000000000000000F7
:1048C00000000000000000000000000000000102E5
:1048D0000304010203040607080902040608000095
:0400000508000131BD
:00000001FF
